:100000000C9434000C943E000C943E000C943E0082
:100010000C943E000C943E000C943E000C943E0068
:100020000C943E000C943E000C943E000C943E0058
:100030000C943E000C943E000C943E000C943E0048
:100040000C943E000C943E000C943E000C943E0038
:100050000C943E000C943E000C943E000C943E0028
:100060000C943E000C943E0011241FBECFEFD4E050
:10007000DEBFCDBF0E9440000C946B000C940000CA
:10008000259A249A2D9A2FEF89E698E121508040F5
:100090009040E1F700C000002D982FEF89E698E12D
:1000A000215080409040E1F700C000002C9A2FEFD3
:1000B00089E698E1215080409040E1F700C00000BF
:1000C0002C982FEF89E698E1215080409040E1F78D
:0A00D00000C00000D7CFF894FFCF66
:00000001FF
